{
  "contractName": "VotingContract",
  "abi": [
    {
      "inputs": [
        {
          "internalType": "address",
          "name": "_trustedForwarder",
          "type": "address"
        }
      ],
      "stateMutability": "nonpayable",
      "type": "constructor"
    },
    {
      "inputs": [
        {
          "internalType": "uint256",
          "name": "",
          "type": "uint256"
        }
      ],
      "name": "candidateDetails",
      "outputs": [
        {
          "internalType": "uint256",
          "name": "candidateId",
          "type": "uint256"
        },
        {
          "internalType": "string",
          "name": "name",
          "type": "string"
        },
        {
          "internalType": "string",
          "name": "details",
          "type": "string"
        },
        {
          "internalType": "uint256",
          "name": "voteCount",
          "type": "uint256"
        }
      ],
      "stateMutability": "view",
      "type": "function"
    },
    {
      "inputs": [
        {
          "internalType": "address",
          "name": "forwarder",
          "type": "address"
        }
      ],
      "name": "isTrustedForwarder",
      "outputs": [
        {
          "internalType": "bool",
          "name": "",
          "type": "bool"
        }
      ],
      "stateMutability": "view",
      "type": "function"
    },
    {
      "inputs": [
        {
          "internalType": "address",
          "name": "",
          "type": "address"
        }
      ],
      "name": "voterAddresses",
      "outputs": [
        {
          "internalType": "string",
          "name": "name",
          "type": "string"
        },
        {
          "internalType": "string",
          "name": "voterId",
          "type": "string"
        },
        {
          "internalType": "address",
          "name": "voterAddress",
          "type": "address"
        },
        {
          "internalType": "bool",
          "name": "hasVoted",
          "type": "bool"
        }
      ],
      "stateMutability": "view",
      "type": "function"
    },
    {
      "inputs": [
        {
          "internalType": "string",
          "name": "_name",
          "type": "string"
        },
        {
          "internalType": "string",
          "name": "_details",
          "type": "string"
        }
      ],
      "name": "addCandidate",
      "outputs": [],
      "stateMutability": "nonpayable",
      "type": "function"
    },
    {
      "inputs": [
        {
          "internalType": "string",
          "name": "_name",
          "type": "string"
        },
        {
          "internalType": "string",
          "name": "_voterId",
          "type": "string"
        },
        {
          "internalType": "address",
          "name": "_voterAddress",
          "type": "address"
        },
        {
          "internalType": "bool",
          "name": "_hasVoted",
          "type": "bool"
        }
      ],
      "name": "manualAddVoter",
      "outputs": [],
      "stateMutability": "nonpayable",
      "type": "function"
    },
    {
      "inputs": [
        {
          "internalType": "uint256",
          "name": "_candidateId",
          "type": "uint256"
        }
      ],
      "name": "vote",
      "outputs": [],
      "stateMutability": "nonpayable",
      "type": "function"
    },
    {
      "inputs": [],
      "name": "startElection",
      "outputs": [],
      "stateMutability": "nonpayable",
      "type": "function"
    },
    {
      "inputs": [],
      "name": "endEelection",
      "outputs": [],
      "stateMutability": "nonpayable",
      "type": "function"
    },
    {
      "inputs": [],
      "name": "electionStatus",
      "outputs": [
        {
          "internalType": "bool",
          "name": "",
          "type": "bool"
        }
      ],
      "stateMutability": "view",
      "type": "function"
    },
    {
      "inputs": [],
      "name": "electionResults",
      "outputs": [
        {
          "internalType": "uint256",
          "name": "",
          "type": "uint256"
        }
      ],
      "stateMutability": "nonpayable",
      "type": "function"
    },
    {
      "inputs": [],
      "name": "viewWinner",
      "outputs": [
        {
          "internalType": "string",
          "name": "",
          "type": "string"
        }
      ],
      "stateMutability": "view",
      "type": "function"
    },
    {
      "inputs": [],
      "name": "getVoterCount",
      "outputs": [
        {
          "internalType": "uint256",
          "name": "",
          "type": "uint256"
        }
      ],
      "stateMutability": "view",
      "type": "function"
    },
    {
      "inputs": [],
      "name": "getOwner",
      "outputs": [
        {
          "internalType": "address",
          "name": "",
          "type": "address"
        }
      ],
      "stateMutability": "view",
      "type": "function"
    },
    {
      "inputs": [],
      "name": "getCandidateCount",
      "outputs": [
        {
          "internalType": "uint256",
          "name": "",
          "type": "uint256"
        }
      ],
      "stateMutability": "view",
      "type": "function"
    }
  ],
  "bytecode": "0x60a06040526000600255600060035560006009553480156200002057600080fd5b5060405162001863380380620018638339818101604052810190620000469190620001c8565b808073ffffffffffffffffffffffffffffffffffffffff1660808173ffffffffffffffffffffffffffffffffffffffff1681525050506200008c620000d260201b60201c565b6000806101000a81548173ffffffffffffffffffffffffffffffffffffffff021916908373ffffffffffffffffffffffffffffffffffffffff16021790555050620001fa565b6000620000e5336200011c60201b60201c565b15620000fb57601436033560601c905062000118565b620001106200015660201b62000dd71760201c565b905062000119565b5b90565b600060805173ffffffffffffffffffffffffffffffffffffffff168273ffffffffffffffffffffffffffffffffffffffff16149050919050565b600033905090565b600080fd5b600073ffffffffffffffffffffffffffffffffffffffff82169050919050565b6000620001908262000163565b9050919050565b620001a28162000183565b8114620001ae57600080fd5b50565b600081519050620001c28162000197565b92915050565b600060208284031215620001e157620001e06200015e565b5b6000620001f184828501620001b1565b91505092915050565b60805161164d62000216600039600061097a015261164d6000f3fe608060405234801561001057600080fd5b50600436106100ea5760003560e01c80633fe1be431161008c57806362d73eb81161006657806362d73eb81461023f578063893d20e814610249578063b416ecba14610267578063eaef034914610283576100ea565b80633fe1be43146101d2578063572b6c05146101dc5780636247e5321461020c576100ea565b806311174a29116100c857806311174a291461015c57806326541b561461017a57806330a5634714610196578063392e2403146101b4576100ea565b80630121b93f146100ef578063037272831461010b57806308670f4f1461013e575b600080fd5b61010960048036038101906101049190610efe565b6102a1565b005b61012560048036038101906101209190610f89565b6103bb565b6040516101359493929190611079565b60405180910390f35b610146610528565b60405161015391906110db565b60405180910390f35b6101646106c5565b60405161017191906110db565b60405180910390f35b610194600480360381019061018f919061122b565b6106cf565b005b61019e610812565b6040516101ab91906110db565b60405180910390f35b6101bc61081c565b6040516101c991906112a3565b60405180910390f35b6101da6108c4565b005b6101f660048036038101906101f19190610f89565b610976565b60405161020391906112c5565b60405180910390f35b61022660048036038101906102219190610efe565b6109ce565b60405161023694939291906112e0565b60405180910390f35b610247610b0e565b005b610251610bc0565b60405161025e9190611333565b60405180910390f35b610281600480360381019061027c919061137a565b610be9565b005b61028b610dc0565b60405161029891906112c5565b60405180910390f35b60001515600660006102b1610ddf565b73ffffffffffffffffffffffffffffffffffffffff1673ffffffffffffffffffffffffffffffffffffffff16815260200190815260200160002060020160149054906101000a900460ff1615151461030857600080fd5b60011515600460009054906101000a900460ff1615151461032857600080fd5b600160076000838152602001908152602001600020600301600082825461034f9190611448565b92505081905550600160066000610364610ddf565b73ffffffffffffffffffffffffffffffffffffffff1673ffffffffffffffffffffffffffffffffffffffff16815260200190815260200160002060020160146101000a81548160ff02191690831515021790555050565b60066020528060005260406000206000915090508060000180546103de906114cd565b80601f016020809104026020016040519081016040528092919081815260200182805461040a906114cd565b80156104575780601f1061042c57610100808354040283529160200191610457565b820191906000526020600020905b81548152906001019060200180831161043a57829003601f168201915b50505050509080600101805461046c906114cd565b80601f0160208091040260200160405190810160405280929190818152602001828054610498906114cd565b80156104e55780601f106104ba576101008083540402835291602001916104e5565b820191906000526020600020905b8154815290600101906020018083116104c857829003601f168201915b5050505050908060020160009054906101000a900473ffffffffffffffffffffffffffffffffffffffff16908060020160149054906101000a900460ff16905084565b60008060009054906101000a900473ffffffffffffffffffffffffffffffffffffffff1673ffffffffffffffffffffffffffffffffffffffff1661056a610ddf565b73ffffffffffffffffffffffffffffffffffffffff16146105c0576040517f08c379a00000000000000000000000000000000000000000000000000000000081526004016105b79061154b565b60405180910390fd5b60001515600460009054906101000a900460ff161515146105e057600080fd5b60005b60025481101561063f5760086007600083815260200190815260200160002060030154908060018154018082558091505060019003906000526020600020016000909190919091505580806106379061156b565b9150506105e3565b506000600190505b6002548110156106bc57600860018261066091906115b4565b81548110610671576106706115e8565b5b9060005260206000200154600882815481106106905761068f6115e8565b5b906000526020600020015411156106a957806009819055505b80806106b49061156b565b915050610647565b50600954905090565b6000600354905090565b60008054906101000a900473ffffffffffffffffffffffffffffffffffffffff1673ffffffffffffffffffffffffffffffffffffffff1661070e610ddf565b73ffffffffffffffffffffffffffffffffffffffff1614610764576040517f08c379a000000000000000000000000000000000000000000000000000000000815260040161075b9061154b565b60405180910390fd5b60006040518060800160405280600254815260200184815260200183815260200160008152509050806007600060025481526020019081526020016000206000820151816000015560208201518160010190805190602001906107c8929190610e11565b5060408201518160020190805190602001906107e5929190610e11565b50606082015181600301559050506001600260008282546108069190611448565b92505081905550505050565b6000600254905090565b60606007600060095481526020019081526020016000206001018054610841906114cd565b80601f016020809104026020016040519081016040528092919081815260200182805461086d906114cd565b80156108ba5780601f1061088f576101008083540402835291602001916108ba565b820191906000526020600020905b81548152906001019060200180831161089d57829003601f168201915b5050505050905090565b60008054906101000a900473ffffffffffffffffffffffffffffffffffffffff1673ffffffffffffffffffffffffffffffffffffffff16610903610ddf565b73ffffffffffffffffffffffffffffffffffffffff1614610959576040517f08c379a00000000000000000000000000000000000000000000000000000000081526004016109509061154b565b60405180910390fd5b6000600460006101000a81548160ff021916908315150217905550565b60007f000000000000000000000000000000000000000000000000000000000000000073ffffffffffffffffffffffffffffffffffffffff168273ffffffffffffffffffffffffffffffffffffffff16149050919050565b60076020528060005260406000206000915090508060000154908060010180546109f7906114cd565b80601f0160208091040260200160405190810160405280929190818152602001828054610a23906114cd565b8015610a705780601f10610a4557610100808354040283529160200191610a70565b820191906000526020600020905b815481529060010190602001808311610a5357829003601f168201915b505050505090806002018054610a85906114cd565b80601f0160208091040260200160405190810160405280929190818152602001828054610ab1906114cd565b8015610afe5780601f10610ad357610100808354040283529160200191610afe565b820191906000526020600020905b815481529060010190602001808311610ae157829003601f168201915b5050505050908060030154905084565b60008054906101000a900473ffffffffffffffffffffffffffffffffffffffff1673ffffffffffffffffffffffffffffffffffffffff16610b4d610ddf565b73ffffffffffffffffffffffffffffffffffffffff1614610ba3576040517f08c379a0000000000000000000000000000000000000000000000000000000008152600401610b9a9061154b565b60405180910390fd5b6001600460006101000a81548160ff021916908315150217905550565b60008060009054906101000a900473ffffffffffffffffffffffffffffffffffffffff16905090565b60008054906101000a900473ffffffffffffffffffffffffffffffffffffffff1673ffffffffffffffffffffffffffffffffffffffff16610c28610ddf565b73ffffffffffffffffffffffffffffffffffffffff1614610c7e576040517f08c379a0000000000000000000000000000000000000000000000000000000008152600401610c759061154b565b60405180910390fd5b600060405180608001604052808681526020018581526020018473ffffffffffffffffffffffffffffffffffffffff168152602001831515815250905080600660008573ffffffffffffffffffffffffffffffffffffffff1673ffffffffffffffffffffffffffffffffffffffff1681526020019081526020016000206000820151816000019080519060200190610d17929190610e11565b506020820151816001019080519060200190610d34929190610e11565b5060408201518160020160006101000a81548173ffffffffffffffffffffffffffffffffffffffff021916908373ffffffffffffffffffffffffffffffffffffffff16021790555060608201518160020160146101000a81548160ff021916908315150217905550905050600160036000828254610db29190611448565b925050819055505050505050565b6000600460009054906101000a900460ff16905090565b600033905090565b6000610dea33610976565b15610dfe57601436033560601c9050610e0d565b610e06610dd7565b9050610e0e565b5b90565b828054610e1d906114cd565b90600052602060002090601f016020900481019282610e3f5760008555610e86565b82601f10610e5857805160ff1916838001178555610e86565b82800160010185558215610e86579182015b82811115610e85578251825591602001919060010190610e6a565b5b509050610e939190610e97565b5090565b5b80821115610eb0576000816000905550600101610e98565b5090565b6000604051905090565b600080fd5b600080fd5b6000819050919050565b610edb81610ec8565b8114610ee657600080fd5b50565b600081359050610ef881610ed2565b92915050565b600060208284031215610f1457610f13610ebe565b5b6000610f2284828501610ee9565b91505092915050565b600073ffffffffffffffffffffffffffffffffffffffff82169050919050565b6000610f5682610f2b565b9050919050565b610f6681610f4b565b8114610f7157600080fd5b50565b600081359050610f8381610f5d565b92915050565b600060208284031215610f9f57610f9e610ebe565b5b6000610fad84828501610f74565b91505092915050565b600081519050919050565b600082825260208201905092915050565b60005b83811015610ff0578082015181840152602081019050610fd5565b83811115610fff576000848401525b50505050565b6000601f19601f8301169050919050565b600061102182610fb6565b61102b8185610fc1565b935061103b818560208601610fd2565b61104481611005565b840191505092915050565b61105881610f4b565b82525050565b60008115159050919050565b6110738161105e565b82525050565b600060808201905081810360008301526110938187611016565b905081810360208301526110a78186611016565b90506110b6604083018561104f565b6110c3606083018461106a565b95945050505050565b6110d581610ec8565b82525050565b60006020820190506110f060008301846110cc565b92915050565b600080fd5b600080fd5b7f4e487b7100000000000000000000000000000000000000000000000000000000600052604160045260246000fd5b61113882611005565b810181811067ffffffffffffffff8211171561115757611156611100565b5b80604052505050565b600061116a610eb4565b9050611176828261112f565b919050565b600067ffffffffffffffff82111561119657611195611100565b5b61119f82611005565b9050602081019050919050565b82818337600083830152505050565b60006111ce6111c98461117b565b611160565b9050828152602081018484840111156111ea576111e96110fb565b5b6111f58482856111ac565b509392505050565b600082601f830112611212576112116110f6565b5b81356112228482602086016111bb565b91505092915050565b6000806040838503121561124257611241610ebe565b5b600083013567ffffffffffffffff8111156112605761125f610ec3565b5b61126c858286016111fd565b925050602083013567ffffffffffffffff81111561128d5761128c610ec3565b5b611299858286016111fd565b9150509250929050565b600060208201905081810360008301526112bd8184611016565b905092915050565b60006020820190506112da600083018461106a565b92915050565b60006080820190506112f560008301876110cc565b81810360208301526113078186611016565b9050818103604083015261131b8185611016565b905061132a60608301846110cc565b95945050505050565b6000602082019050611348600083018461104f565b92915050565b6113578161105e565b811461136257600080fd5b50565b6000813590506113748161134e565b92915050565b6000806000806080858703121561139457611393610ebe565b5b600085013567ffffffffffffffff8111156113b2576113b1610ec3565b5b6113be878288016111fd565b945050602085013567ffffffffffffffff8111156113df576113de610ec3565b5b6113eb878288016111fd565b93505060406113fc87828801610f74565b925050606061140d87828801611365565b91505092959194509250565b7f4e487b7100000000000000000000000000000000000000000000000000000000600052601160045260246000fd5b600061145382610ec8565b915061145e83610ec8565b9250827fffffffffffffffffffffffffffffffffffffffffffffffffffffffffffffffff0382111561149357611492611419565b5b828201905092915050565b7f4e487b7100000000000000000000000000000000000000000000000000000000600052602260045260246000fd5b600060028204905060018216806114e557607f821691505b602082108114156114f9576114f861149e565b5b50919050565b7f6f6e6c79204f776e657200000000000000000000000000000000000000000000600082015250565b6000611535600a83610fc1565b9150611540826114ff565b602082019050919050565b6000602082019050818103600083015261156481611528565b9050919050565b600061157682610ec8565b91507fffffffffffffffffffffffffffffffffffffffffffffffffffffffffffffffff8214156115a9576115a8611419565b5b600182019050919050565b60006115bf82610ec8565b91506115ca83610ec8565b9250828210156115dd576115dc611419565b5b828203905092915050565b7f4e487b7100000000000000000000000000000000000000000000000000000000600052603260045260246000fdfea2646970667358221220a72b8468f25f5f876eca21410df9db367d03c4ffcfde1535d9b5771a9b87857364736f6c63430008090033",
  "immutableReferences": {
    "8": [
      {
        "length": 32,
        "start": 2426
      }
    ]
  },
  "source": "pragma solidity >=0.6.0 <0.9.0;\r\n\r\nimport \"@openzeppelin/contracts/metatx/ERC2771Context.sol\";\r\n\r\n// SPDX-License-Identifier: MIT\r\n\r\ncontract VotingContract is ERC2771Context {\r\n    \r\n    constructor(address _trustedForwarder) public ERC2771Context(_trustedForwarder){\r\n        owner = _msgSender();\r\n    }\r\n    address owner;\r\n\r\n    address trustedForwarder;\r\n\r\n    uint256 candidateCount = 0;\r\n\r\n    uint256 voterCount = 0;\r\n\r\n    bool start;\r\n\r\n    string pollName;\r\n\r\n    //Struct\r\n    // struct EIP712Domain {\r\n    //     string name;\r\n    //     string version;\r\n    //     uint256 chainId;\r\n    //     address verifyingContract;\r\n    // }\r\n\r\n    // struct MetaTransaction {\r\n    //     uint256 nonce;\r\n    //     address from;\r\n    // }\r\n\r\n    // mapping(address => uint256) public nonces;\r\n\r\n    // bytes32 internal constant EIP712_DOMAIN_TYPEHASH =\r\n    //     keccak256(\r\n    //         bytes(\r\n    //             \"EIP712Domain(string name,string version,uint256 chainId,address verifyingContract)\"\r\n    //         )\r\n    //     );\r\n    // bytes32 internal constant META_TRANSACTION_TYPEHASH =\r\n    //     keccak256(bytes(\"MetaTransaction(uint256 nonce,address from)\"));\r\n    // bytes32 internal DOMAIN_SEPARATOR =\r\n    //     keccak256(\r\n    //         abi.encode(\r\n    //             EIP712_DOMAIN_TYPEHASH,\r\n    //             keccak256(bytes(\"Quote\")),\r\n    //             keccak256(bytes(\"1\")),\r\n    //             4, // Rinkeby\r\n    //             address(this)\r\n    //         )\r\n    //     );\r\n    // Struct of a voter\r\n    struct Voter {\r\n        string name;\r\n        string voterId; // Roll number or any other number\r\n        address voterAddress; // Wallet address\r\n        bool hasVoted;\r\n    }\r\n\r\n    mapping(address => Voter) public voterAddresses;\r\n\r\n    // Struct of a candidate\r\n    struct Candidate {\r\n        uint256 candidateId;\r\n        string name;\r\n        string details; // manifesto or any other description\r\n        uint256 voteCount; // the number of votes he got\r\n    }\r\n\r\n    mapping(uint256 => Candidate) public candidateDetails;\r\n\r\n    uint256[] private candidateVote;\r\n\r\n    // Modifier for letting only the owner to add candidates\r\n    modifier onlyOwner() {\r\n        require(_msgSender() == owner, \"only Owner\");\r\n        _;\r\n    }\r\n\r\n    // constructor(address _trustedForwarder) public {\r\n    //     owner = msg.sender;\r\n    //     trustedForwarder = _trustedForwarder;\r\n    // }\r\n\r\n    // function to add a new candidate\r\n    function addCandidate(string memory _name, string memory _details)\r\n        public\r\n        onlyOwner\r\n    {\r\n        Candidate memory newCandidate = Candidate({\r\n            candidateId: candidateCount,\r\n            name: _name,\r\n            details: _details,\r\n            voteCount: 0\r\n        });\r\n\r\n        candidateDetails[candidateCount] = newCandidate;\r\n\r\n        candidateCount += 1;\r\n    }\r\n\r\n    // function to add voter\r\n    // only suitable for a local blockchain\r\n    function manualAddVoter(\r\n        string memory _name,\r\n        string memory _voterId,\r\n        address _voterAddress,\r\n        bool _hasVoted\r\n    ) public onlyOwner {\r\n        Voter memory newVoter = Voter({\r\n            name: _name,\r\n            voterId: _voterId,\r\n            voterAddress: _voterAddress,\r\n            hasVoted: _hasVoted\r\n        });\r\n\r\n        voterAddresses[_voterAddress] = newVoter;\r\n\r\n        voterCount += 1;\r\n    }\r\n\r\n    // actual function to add voters shouldbe done by an oracle\r\n    // work on this later\r\n\r\n    // the actual voting function\r\n    function vote(uint256 _candidateId) public {\r\n        require(voterAddresses[_msgSender()].hasVoted == false);\r\n        require(start == true);\r\n        candidateDetails[_candidateId].voteCount += 1;\r\n        voterAddresses[_msgSender()].hasVoted = true;\r\n    }\r\n\r\n    //voting function for meta transaction\r\n    // function voteMeta(\r\n    //     uint256 _candidateId,\r\n    //     address userAddress,\r\n    //     bytes32 r,\r\n    //     bytes32 s,\r\n    //     uint8 v\r\n    // ) public {\r\n    //     MetaTransaction memory metaTx = MetaTransaction({\r\n    //         nonce: nonces[userAddress],\r\n    //         from: userAddress\r\n    //     });\r\n\r\n    //     bytes32 digest = keccak256(\r\n    //         abi.encodePacked(\r\n    //             \"\\x19\\x01\",\r\n    //             DOMAIN_SEPARATOR,\r\n    //             keccak256(\r\n    //                 abi.encode(\r\n    //                     META_TRANSACTION_TYPEHASH,\r\n    //                     metaTx.nonce,\r\n    //                     metaTx.from\r\n    //                 )\r\n    //             )\r\n    //         )\r\n    //     );\r\n\r\n    //     require(userAddress != address(0), \"invalid-address-0\");\r\n    //     require(\r\n    //         userAddress == ecrecover(digest, v, r, s),\r\n    //         \"invalid-signatures\"\r\n    //     );\r\n    //     require(voterAddresses[userAddress].hasVoted == false);\r\n    //     require(start == true);\r\n    //     candidateDetails[_candidateId].voteCount += 1;\r\n    //     voterAddresses[userAddress].hasVoted = true;\r\n    //     nonces[userAddress]++;\r\n    // }\r\n\r\n    // onlyOwner function for starting the election\r\n    function startElection() public onlyOwner {\r\n        start = true;\r\n    }\r\n\r\n    // onlyOwner function to end election\r\n    function endEelection() public onlyOwner {\r\n        start = false;\r\n    }\r\n\r\n    // public function to view election status (use this in dashboard)\r\n    function electionStatus() public view returns (bool) {\r\n        return (start);\r\n    }\r\n\r\n    uint256 winner = 0;\r\n\r\n    // function to view election results\r\n    function electionResults() public onlyOwner returns (uint256) {\r\n        require(start == false);\r\n\r\n        for (uint256 i = 0; i < candidateCount; i++) {\r\n            candidateVote.push(candidateDetails[i].voteCount);\r\n        }\r\n        for (uint256 i = 1; i < candidateCount; i++) {\r\n            if (candidateVote[i] > candidateVote[i - 1]) {\r\n                winner = i;\r\n            }\r\n        }\r\n        return winner;\r\n    }\r\n\r\n    function viewWinner() public view returns (string memory) {\r\n        return candidateDetails[winner].name;\r\n    }\r\n\r\n    // get total number of voters\r\n    function getVoterCount() public view returns (uint256) {\r\n        return voterCount;\r\n    }\r\n\r\n    function getOwner() public view returns (address) {\r\n        return owner;\r\n    }\r\n\r\n    function getCandidateCount() public view returns (uint256) {\r\n        return candidateCount;\r\n    }\r\n}",
  "sourcePath": "C:\\Users\\User\\Desktop\\blockchain-voting - kovan\\contracts\\VotingContract.sol",
  "compiler": {
    "name": "solc",
    "version": "0.8.9+commit.e5eed63a.Emscripten.clang"
  },
  "schemaVersion": "3.4.6",
  "updatedAt": "2022-04-02T12:09:42.392Z",
  "devdoc": {
    "kind": "dev",
    "methods": {},
    "version": 1
  },
  "userdoc": {
    "kind": "user",
    "methods": {},
    "version": 1
  }
}